:400000000080002011000000C9000000C900000008B5044B04481A68026000F0AFFB00F055F800BFFA460040BC76004010B5054C237833B9044810B10448AFF3008001217F
:40004000217010BD2881FF1F000000001421000008B5064B1BB106480649AFF300800648016811B1054A02B1904708BD00000000142100002C81FF1F0881FF1F00000000CF
:4000800010B500F03FFD044608B180220EE00A4B187000F03FFE094800F057FE0120214600F0E3FD064800F050FE40220548027000F0C6F9FEE700BF756500401821000071
:4000C00029210000FA460040FEE7000008B51249124B4A1C1AD053F8106C53F80C0C53F8085C0022AA4200EB020403D0B45884500432F7E753F8040C0022824203D00025B4
:40010000A5500432F9E701391033E2E701F0C6FFFFF7B6FFFEE700BF000000000824000008B5104A104B1A60986840F400729A600023032B96BF0D4A0D4952F823100D4A8A
:4001400042F823100133302BF3D10B490B4B08780B4918700A6000F017F80A480022026008BD00BF0004FA050CED00E000000000C90000000080FF1FBC7600400481FF1F9E
:4001800008ED00E00081FF1FF8B572B6594B00241A7842F004001870574D062101FB045600213068B288013401F0A7FF072CF3D100231946514A98584C3202EB4104C6B2D2
:4001C00020F0FF070022D5B2AE4209D004EB420C14F812509CF801E0013205F807E0F2E70433C0B24C2B0144E4D1454C227842F002052570207C434D40F0020121744249D5
:400200000B7843F040040C702A78404B404C42F010005A6828701D68188962601A462560208152F80A4F3B4D50682C606860184650F8144F128945F8AE4C2A81426853F8D3
:400240001C0F45F8AA2C5C68334D1B8928606C602B81324D324B2A78012442F0080028703048314A4FF4E15504701D8041F61F4418252E4B15705480157140F21F351D80F4
:400280002B4D192206249A702C70A5F580735222284C1A702578284A284B1570072400221A801C70264C48252270A5701A705A71022203F8032C234B02341A7842F00702A8
:4002C0001A70812303702048204A037803F007001B09107053701E4A442010701D4A0B460C3153F8040B8B4242F8040BF9D119881180F8BDE84600403C21000068210000F9
:4003000003500140C2430040A043004068220000C0510040F0510040505100402243004080400040004800408240004088400040004300400F010049A146004004400040C6
:4003400006400040A2430040CF0100496E58004076580040B043004000470000431E10B50246062B0DD8DFE803F0060E2304080A2100164808E0164B1BE0164804E016483D
:4003800002E0002000E015484178007841EA0020022A04D0032A07D0012A15D104E0020242EA102398B210BD00BA10BD0C4B00E00C4BD8789C7859781B7840EA036040EA7B
:4003C000042343EA0140E3E710BD00BFD2FF0300C1FF0300D6FF0300D4FF0300C5FF0300D8FF0300C9FF030038B50220FFF7B6FF05460320FFF7B2FF691C00EB01250220DA
:40040000FFF7ACFF0023013001021A46A94209D211F8014B601EC0B2E318FD2898BF0122DBB2F3E705495B420878D9B2814201D0062038BD002AFBD0002038BDC0FF0300E7
:400440002DE9F041ADF58C6D00F0DAF910B1002000F04CFA02A800F0E7F910B1002000F045FAA6480368196800230A4622B112F8014DE318DBB2F9E742681078C31A03F054
:40048000FF02824200D111B9002000F02FFAFFF7ABFF9B490B7803F0C002402A0B4601D000283ED000261E7000F05CFC62B6B046354682A84FF4967101AAFF2300F080FCF3
:4004C0000028F6D1BDF80410062940F253819DF80842012C40F04E819DF80B729DF80A2282AB42EA072404F1070E1B198E455F791A7900F23D819979172940F03B81231D03
:400500009BB233B10DF20721C95C013B401880B2F6E7404242EA072782B2974240F02C8107E08020087000F0E3F90DF58C6DBDE8F0819DF809129DF80C7231390A2900F2A7
:40054000E980DFE811F00B001A00E700E700E700E7007400850032009500CC00002E00F00981002C40F00681FFF73EFFD0F1010438BF00248DF80C42AEE0002E00F0FA8065
:40058000012C4FF0000440F0B380032F00F2B080FF2003228DF80C428DF80D4227468DF80E028DF80F220424B6E0002E00F0E280022C40F2DF80033CCDA9481922460DF2F7
:4005C0000F2101F091FDA7F140002D193F28ADB203D800F07FF9102301E04FF480739D4240F088809DF80E229DF80D423F2F44EA022411D8B8F1000F0ED141464FF480721D
:4006000042A801F07AFD0320FF2142AA4FF4807300F010F94FF0010838462146CDAA2B4600F008F9002867D000250A2773E0002E00F0A0802F19B7F5967F00F29980CDA934
:400640004819224683A901F04FFDBDB2002762E0002C40F08F802B4F42AE83AB97E80300274686E8030083E803000126082453E0002E7FD0032C7DD19DF80E029DF80D22B6
:40068000A7F140043F2C42EA00210AD80F01002310221D495418E05D013A0344DBB2F8D117E001EB07231C024FF480720023013A105D1B18DBB2002AF9D1032F09D1FF2965
:4006C00007D1124F124A397810785C1A231A03F0FF035F428DF80C72002701241CE0FFF783FE10B9064B80241C7000F001F941E0042711E000253BE00546A7E70C81FF1FEC
:40070000FA46004090220000FF7F0040D0FF0300D1FF03000527002401228DF808228DF809720022271DADF806408DF80A428DF80B22BFB20DF20721C85D7B1E12189FB25D
:4007400092B2002FF6D1514288B283AA1055070A0DF20D2317210DF20E201F550155073482A8A1B20DF10602962300F00AFBA0E60327D0E70427CEE70827CCE708B50A4BCA
:400780001A7802F0C00080280CD1002119700120FFF7E4FD30B10120FFF7E0FDBDE80840FFF7DABD08BD00BFFA460040012010B500F050F9072809D04FF0FF3417E00E4B92
:4007C000187800F00201CAB2002AF5D102210B4800F0DCF80228F2D1074C237803F00200C1B219B9012000F09FF8F5E7002400F06FF9204610BD00BF224700405281FF1F2F
:4008000008B500F0B1F800F043F958B9FFF7CEFF48B900F0A9F800F03BF918B9BDE80840FFF7C4BF042008BD08B500F09DF8002008BD0000F8B505460E4617461C4600F06A
:4008400027F9F0B922462846394600F0B9F80728044613D11D4B1A7802F00200C1B219B9012000F061F8F5E71C7804F00202D0B210B11B789B0806D04FF0FF3400F028F985
:4008800022E0042420E0124C284622786378314600F0BCF807280446F0D10C490A7802F00200C3B21BB9012000F03EF8F5E70C7804F00202D0B20028DED009788B0814BF86
:4008C0004FF0FF340024D9E72046F8BD224700405281FF1F044B1A7842F010001870197C41F010021A747047AC43004001BE7047024B1A7842F0010018707047F6460040B3
:4009000010B50446B4F5004F064B05D9186800F0A3FAA4F50044F5E758686043BDE8104000F09ABA1481FF1F024B197A484300F093BA00BF1481FF1F054B00F01F001B6870
:4009400000F1100253F8220043F82210704700BF08ED00E000F01F0000F16043490103F56442C8B21070704708B500F07FFA064B1A7842F0080119701A7C42F008011974E8
:40098000BDE8084000F076BAA043004070B506460D460024E3B2AB420CD207480178CB0703D40120FFF7C0FFF7E7044A137833550134EFE7284670BD224700402047004043
:4009C00030B5104B1C7804F00204E4B2ACB10E4CB6252570D5252570022525701B782B40DBB263B9207098B2904204D2CC5C064801330470F7E7072030BD042030BD0920AE
:400A000030BD00BF224700402047004070B50F4D2C7804F00204E4B2A4B10D4CB6262670D8262670052626702D7805F00205EDB255B92070080AC9B220702170072022704B
:400A4000237070BD042070BD092070BD22470040204700400C4A137803F00201CBB273B10A4BB6211970E12119700E211970127802F00201CAB222B91870072070470420EF
:400A800070470920704700BF224700402047004038B500F0EBF90C4B197879B901250B4A1D7014682C400AD0146824F00104146000BF00BF00BF5D600C4600E0042400F09E
:400AC000D9F9204638BD00BF4481FF1F0400084010B500F0CBF9094B002259681A70012908D107490C6844F001040C6000BF00BF00BF5A60BDE8104000F0BCB94481FF1F01
:400B000004000840014B1878C00970475151004010B50B4C237803F09F012170227802F0F0032370217841F01002104320700120FFF7FAFE207800F0EF03237010BD00BFD7
:400B40004051004038B50F4C0546237843F0200020702178002001F0BF022270FFF7E4FE237803F0F00020702178012041F0100215432570FFF7D8FE237803F0EF002070ED
:400B800038BD00BF4051004038B52E4B2E4C1A7802F08000C1B21970257805F0F00242F00F002070617801F0F0056570A27802F0F000A0701C7804F0DF0119701D7845F020
:400BC00040021A701F4C0020FFF7AEFE237843F0100020700120FFF7A7FE1C4900200D78227805F0080502F0EF032370FFF79CFE2078EDB240F0100121700120FFF794FE73
:400C0000227802F0EF032370002DDBD1207800F0BF01217022780C4902F08003D8B220700A7802F0F0030B70487800F0F00242F00F034B70887800F0F00242F00F038B70CF
:400C400038BD00BF40510040425100404151004010B50446FFF798FF2009FFF759FF04F00F00BDE81040FFF753BF032811D8DFE800F00205080B81F0800008E0A1F14000A7
:400C800004E0A1F16C0001E0A1F12C00C0B2FFF7DFBF704708B50C20FFF7DAFF014B01221A7008BD4C81FF1F08B52820FFF728FE0320FFF72DFF0520FFF722FE0320FFF7DB
:400CC00027FF0F20FFF71CFE0320FFF721FF0120FFF716FE0220FFF71BFF0520FFF710FE0620FFF7B5FF0E20FFF7B2FF2C20FFF7AFFF0820FFF7ACFF0120FFF7A9FF0C2087
:400D0000FFF7A6FF0320FFF7A3FF0520BDE80840FFF7F6BD10B5054C63781BB9FFF7C4FF01206070BDE81040FFF7B4BF4C81FF1F10B50446FFF728FF2009FFF703FF04F0A9
:400D40000F00BDE81040FFF7FDBE38B505460078012428B1FFF7ECFF285D0134E4B2F8E738BD000008B562B60020022100F05EF9014B01221A7008BD4E81FF1F012000F0F0
:400D8000FFB9F8B507460E4615460A240220394640225C4300F0B6F9022000F095F930B92CB10120013CFFF7ABFDA4B2F4E7022000F08AF910B12E800020F8BD1020F8BD12
:400DC0002DE9F0410A245C43224B804618780F461646A8B1254600F067F930B92DB10120013DFFF78DFDADB2F5E700F05DF9A8B100F060F9FFF7C2FF164900220A700DE0EF
:400E000000F058F950B100F04FF938B1FFF7B6FF04E054B1FFF774FD013CA4B2012000F053F901284FF00100F3D100F04DF901280AD14146402F34BF3A46402200F0B4F995
:400E400030800020BDE8F081002333801020BDE8F08100BF4E81FF1F0230800800F0058000BF013800467FF4FCAF7047EFF3108072B6704780F31088704700BFAFF300808E
:400E8000F8B5FFF7F3FF384B07461A78012542F001001870197C022641F001041C74334B334C1D7003F8946C13F88D2C02F07F0003F88D0C0020FFF737FD21782D4801F040
:400EC000F9032370027802F0DF010170237828462B432370FFF728FD2820FFF725FD2648027802F07F010170037803F0BF0202702078304320703046FFF716FD21781F4A99
:400F000041F0040323700024147038465470FFF7B1FF17201A49FFF70FFD17200721FFF719FD15201749FFF707FD15200721FFF711FD18201449FFF7FFFC18200721FFF783
:400F400009FD20461149FFF7F7FC20460721FFF701FD28460E49FFF7EFFC28460721BDE8F840FFF7F7BC00BFA54300409D6000409443004012600040F851004084600040E4
:400F80007F1600007D160000BD1400001516000049160000184B012210B51A70174B4FF400041C604FF080741C601A6002221A60134B00241C70134B01B1032212491A70C5
:400FC000124B0870124A002012491870124B10700870124A12491870124B10700870802203201870012003F8202CFFF735FF0E480421017010BD00BFE281FF1F00E100E03B
:401000005481FF1F096000405E81FF1F6681FF1F5581FF1F6181FF1F5F81FF1F7581FF1F5681FF1F286000401260004070B5074C064623780D461BB9FFF722FF012020704F
:4010400030462946BDE87040FFF7A4BF4F81FF1F0C4B01220C491A7000200C4A0C4B08700C49107018700C4A0C4B08700C49107018700C4B087080220320187003F8202C0F
:40108000704700BFE281FF1F5481FF1F6681FF1F5581FF1F6181FF1F5F81FF1F7581FF1F5681FF1F28600040014B1878704700BF6681FF1F034B187810B1002218781A704C
:4010C000704700BF6181FF1F024B0C2202FB0030407870477681FF1F0138C3B2072B0CD81901074ACBB2985C511C5B5C00F00F0243EA0220811E88B270470020704700BF14
:401100000C600040431EDBB2072BF0B52FD8184E1C010C27E3B207FB0064E788154DBFB2C7F50077BA421D4403D9E288C2F50074A2B20C2404FB0066F47844EA12260E4C2E
:401140001E55D6B201341E5549B9094A0C2101FB0020002141704079084A9854F0BD0024A6B29642F1D20E5D01342E70F8E7F0BD7681FF1F886000400C6000400E60004040
:40118000431EDBB2072B0AD8054A0C2101FB0020002141701B014079024ADBB2985470477681FF1F0E600040F8B5431E0D46D9B207290746144616D8BDB10A010C4ED3B2A6
:4011C0009E19FFF789FFA04228BF204684B2002290B2A04203D23178A9540132F8E73846FFF7CEFF02E0002400E02C462046F8BD886000401B4B1C491A880878821891B2DC
:4012000019801A491A4BCAB2188880B278B1194A91420BD05A68107801F8010B5A68501C58601A88501E82B21A80EBE708220E490B78082B00D05AB10F48017881F080030A
:401240000E4903700F200E4B08700220187004E00A490B4B022008701870034909480A70027070476481FF1F5681FF1F006000406881FF1F086000406081FF1F5D81FF1FC9
:401280005481FF1F7481FF1F074B02221A700749074B80200F2208701A700649064A002008701070012070475481FF1F6081FF1F5D81FF1F5681FF1F7481FF1F10B5154B09
:4012C0001A78154B02F00F00811E1888CAB2111888B212491880124B188880B270B16AB1586811F8014B013A04705868D2B2013058601888013880B21880ECE709490A4B71
:401300000A701A780B2182F080001870074B197010BD00BF296000406481FF1F006000406881FF1F7481FF1F6081FF1F5D81FF1F064A0748062313700370064B0648802115
:401340000022197002700120704700BF5481FF1F5D81FF1F6081FF1F7481FF1F054B9A683AB19968044A08709868118841800020986070476881FF1F6481FF1F08B50A4B6F
:401380001A7832B11978094A41F08000002110701970074B002018700120FFF7DFFF054903220A7008BD00BF5F81FF1F086000405481FF1F5D81FF1F08B5054B00220120B4
:4013C0001A70FFF7CBFF03490320087008BD00BF5481FF1F5D81FF1F074B1878042805D0062805D0022805D1FFF704BFFFF7E4BFFFF7C4BF704700BF5481FF1F08B5084921
:40140000084B1A880878821891B21980064B002018700120FFF7A2FF044903220A7008BD5681FF1F6481FF1F5481FF1F5D81FF1F08B50B4B1878042807D0062809D00228A1
:401440000DD1BDE80840FFF7D9BFBDE80840FFF735BF0320FFF782FF024903220A7008BD5481FF1F5D81FF1F08B5114B1A781A701878020602D50F4B187008BD0220FFF7A1
:401480006DFF0D490B7803F06002202A05D0402A06D042B900F080FC04E000F0D7FD01E000F0C8FD10B903490320087008BD00BF286000405D81FF1F0060004008B5224BCC
:4014C0001A78D0B200F01001CBB2002B3BD052B2002A0ADA00F00F01012934D1FFF7C4FF1A4B187800060DD508BD00F04001CBB213B1FFF771FF05E000F02000C2B212B382
:40150000FFF796FF104A117809061CD4104B114A1878117841EA00030F4803700278934211D10A49084B0A78187800F08000C0B220B90A781A70197801F00F02034B187856
:401540008242EED108BD08BD286000405D81FF1F6081FF1F7481FF1F29600040054A00231380054A916819B191680B7090684380704700BF6481FF1F6881FF1F08B50C49E7
:401580000C4B042280201A700870FFF7E7FF0A4B1A78581E094B0178188841EA022281B2914288BF1A80064B0B221A70012008BD6081FF1F5481FF1F076000406881FF1FA2
:4015C0005D81FF1F10B50F4C238898B210B9FFF75BFE14E00C490D4B022200200A701870FFF7BCFF0A49481E0A78037843EA0221228890B2884288BF2180FFF7FBFD012077
:4016000010BD00BF6881FF1F5481FF1F6081FF1F07600040094B0A481B78027B02F00301012903D0C37B83F08002C273012141730448037803F0FE02027070470E60004006
:401640007681FF1F0B600040094B0A481B78027E02F00301012903D0C37E83F08002C276012141760448037803F0FD02027070471E6000407681FF1F0B6000407047FFF7AA
:40168000E7BC000008B50B4B1878411EC8B200F087F9094A0949137800EBC3004269CB5C02EBC3004268064B506A01781980586008BD00BF6681FF1F046000405C81FF1F94
:4016C0006881FF1F08B50D4B1878411EC8B200F067F90B4A0B49137800EBC3004269CB5C02EBC3004268D369074A597813F8020B40EA01211180536008BD00BF6681FF1F78
:40170000046000405C81FF1F6881FF1F10B5164C00231648238001784A1ED0B200F040F91349144B1B780A7800EBC2004169D2B9114A013B1078DAB201EBC001022A496845
:4017400011D80E4A01EBC300127811F83310914209D30C235A4341688B1858688A5A996860602280A16010BD6881FF1F6681FF1F04600040036000405C81FF1F0260004017
:4017800010B53A4B3A4A18781178090634D5511C0B785A1E052A67D8DFE802F010182766660334480178212902D1FFF76BFF07E00378222B58D1FFF785FF01E0FFF7A6FF3D
:4017C0002D490B8898B200284ED00AE000284BD12A4B1878002847D127480122284902804160BDE81040FFF7EDBE00283CD12248012202802349F3E713781A0634D4224A78
:401800001178092905D02FD30A290DD00B292BD122E0FFF77BFF184B1A8890B2002823D0BDE81040FFF7AABEF0B914480178D9B9441C2378124A1370144B14781878844284
:4018400001D2197004E01978012901D912781A70BDE81040FFF76CBD30B908480378012B02D80278074BF2E7002010BD0460004000600040036000406881FF1F026000408F
:40188000E381FF1FE281FF1F01600040E481FF1F7FB5134B02466D4603F11006186859682C4603C40833B3422546F7D1B2B1222003210C4B1070517013F8011B04AC04EB66
:4018C000111010F8100C01F00F019070601810F8101C054802F8041F8342EDD17FBD00BF98220000000100490801004930B5012202F10F031801092AC3B23BD01F4903F183
:4019000080440C2004F5C14500FB021428701C496579591825B12479240658BF082000E08020087017490C245818144904FB02110C890132C4F3072404700C891248E4B275
:4019400018180470CC881148E4B218180470CC880F48C4F3072418180470CC880D48E4B2181804700C48D2B21818CB88C3F307210170BDE70949FF220A7030BD7681FF1F8B
:401980000E6000400C6000400D600040866000408760004084600040856000400A600040084B09491A7801EBC20359680B7A01F10802834203D902EBC000406870470020E9
:4019C000704700BF5E81FF1FAC220000F8B53D4B1A78002A74D01878411EC8B2FFF7E0FFC368057A08330020A84269D013F8082C3549364C8E5CA45CA6425DD0895C13F8DD
:401A0000074C8C4258D1324909788A4254D113F8067C07F07F02561E3401E1B213F8056C2C4C17F0800F4FF00C0706F0030607FB024406D001276770BE4214BF0D26072603
:401A400005E000276770012E14BF092605266671214C01260F190C2454433E701D4E33F8047C3219178113F8067C177113F8057C37550026D6701689184CC6F307260C197F
:401A800026701689164CF6B20C192670D688154CF6B20C192670D688134CC6F307260C192670D688114CF6B20C192670104C0C19D188C1F3072222700130C0B2083393E7ED
:401AC000F8BD00BF6681FF1F5C81FF1F6781FF1F046000407681FF1F0E6000400C6000400D6000408660004087600040846000408560004008B5064B1878411EC8B2FFF7A9
:401B00004FFF20B14268137900EBC300406908BD6681FF1FF8B500210C244C43514D013100232A1909292B55937002F108045370D370537113819372EED118B14A484B4AA6
:401B4000037013704A4B1978002900F08A801C78601EC0B2FFF724FF4268D37903F04001CCB2444B1CB11C7844F0010102E01A7802F0FE01047A19700122C36800210833A5
:401B8000A14243D013F8065C05F07F06B24239D1344E0C2707FB0266B6F808E033F8047C1FFA8EFCBC4538BF378113F8086C2E4FBE5D13F8077CB74224D113F8056C15F083
:401BC000800F284D4FF00C0706F0030607FB025506D001276F70BE4214BF0D26072605E000276F70012E14BF092605266E710C2555431C4E13F806EC771987F804E013F8D3
:401C0000057C77550131C9B20833B9E70132092AB3D1C36800220833A2420DD013F8065C0C2605F07F010F4D13F8080C06FB015101328872D2B2EEE7FFF75CFF0E4B002268
:401C40001860012307490C2000FB0310C280018901335218092B92B2F4D1BDE8F840FFF745BEF8BD7681FF1F5C81FF1F6781FF1F6681FF1F7581FF1F5881FF1F124B1978F8
:401C800001F07F014A1ED0B207281AD80301DAB20E4B0C2000FB0130817841F0010300218370C170437843F0020141700079084B10F0800F01D08D2100E08921D154FFF7D3
:401CC00037BB0020704700BF046000407681FF1F0E60004010B51A4B187800F07F035A1ED2B2072A2AD817490C2000FB03139C78120104F0FE01997000241349DC70D2B28A
:401D0000545C04F07F045454597801F0FD01597019795B7811F0800F0C4905D0012B01D1505407E00D2004E0012B01D1082000E009205054BDE81040FFF7FABA002010BD33
:401D4000046000407681FF1F0C6000400E60004010B50C4B0C481C7801784A1ED0B2FFF71FFE43681879A04209D944B9074B084A19780848117001780120197010BD0020C3
:401D800010BD00BF046000406681FF1F5C81FF1F6781FF1F0260004038B5804B00221A807F4A8048117811F0800F00F08F8001780A2900F23481DFE811F05D003201320150
:401DC0003201320132010B0032017D0032018100754B197801290AD174487549027801EBC2035868122342686C48426012E01878022814D16F4B1878FFF7D2FD002800F033
:401E00000E814268654842604168CB784268917841EA03230380BDE83840FFF7D3BB1A78032A23D1644B002262490878904202D80A7842B911E018780028F9D01878511CBF
:401E40001B18CAB2F0E75B495C4A0878117C814203D15B48FFF71CFD594B1878002800F0DE8019784D4A11805360D4E7BDE8384000F0ECB8117811F0030211D0022A40F0EE
:401E8000CE8046494F4B0A8018784F4A00F07F030C2000FB032398784C4B0022187006E03E4902234A480B800078484B18705A704B60B0E701221A80464805E001224148BE
:401EC0001A800278444988185860A4E70378581E0A2800F2A480DFE810F03800A2005100A2000B00A200A200A2000F00A2002600304B3A49187881E02E4D2D78ECB25CB907
:401F000034480278944200F086803549057001200870FFF7FFFD7EE0631ED8B2FFF740FD0028EDD17BE0FFF713FF002877D0254C2C4A24782A4B012114701970FFF746FDAD
:401F400025482949025D0A5565E0127802F00301012955D009D3022961D1164B187800285DD1BDE83840FFF7B5BE124A1178012955D117490B7803F0FD003FE0107800F00B
:401F80000302012A3CD031D3022A48D109490B78002B44D1BDE83840FFF770BE6881FF1F0060004001600040036000405E81FF1FAC2200000260004072230000C023000076
:401FC0002C82FF1F046000407681FF1F5081FF1F7581FF1F6681FF1F5C81FF1F5F81FF1F6181FF1F5581FF1F6781FF1F0D480278012A14D10C490B7843F0020008700AE013
:402000000A4802785AB90378094A0648D15C007821EA0001D154BDE83840FFF789B9002038BD00BF026000407581FF1F046000406281FF1F034B1878010644BF0249097897
:402040000020704700600040016000400F4B187800F0030101290CD002290DD10C4A0C2110780C4A00F07F0301FB03200830837803E0074B1B7800E0002307490A68D05C7D
:40208000032801D1FFF77CBB0020704700600040046000407681FF1F5881FF1F38B50E4D0E4B0024E81A8510AC4205D00B4951F8242090470134F7E700F08CF90849094ACC
:4020C000541AA5100024AC4205D0054B53F8240080470134F7E738BDE0230000E0230000E0230000E823000010B50023934203D0CC5CC4540133F9E710BD821803469342CB
:4021000002D003F8011BFAE7704700002824000057000000000000004D6F6E61736820476C6F6D657269646100426F6F746C6F6164657220526561647900000000510040B0
:40214000400060510040100000000140001000140140000800400140000A004C014000020050014020000000014500400552004001650040191401400D15014001170140B8
:4021800001190140021B01400340014002410140024201400243014003470140064801400A490140024C0140084D014002500140015101407E0229202C80608061807C4068
:4021C00075019001910F9402961598129A089C0C9E13A106A309AD05AF0AB003B206B30CB418B503B882B928BF14D804D904DB04DC02DF010EAA1EAA26282E8237016F017C
:40220000828086428A088E20C2F0CA90CC80EE0AEE0AE010E48033803640CC30A640A780A640A780A640A78008080F40C20C22042704AE40AF80C860EE50734083048604E7
:40224000874092089B04DC80E080E410E640AC08AF40601076408A408C10D802DE04E008E40110041A04000A010000018100810000000000000000000000C000007F7F00D2
:40228000000000008000008020002000000000006900122E00140101303132333435363738394142434445460000000001000000B422000001000000C023000001000000C1
:4022C000C4220000010000009723000002000000E622000001000000F822000000000000E422000003000000010340000300000082034000030000000100000000230000DC
:40230000000000003423000000000000282300000000000000000000010000004023000001000000A923000041000000E681FF1F4E82FF1F410000005282FF1F2882FF1F1B
:40234000240005010900A1000900A1000900150025FF7508954091020900150025FF750895408102C0C000000A033000300030003100040309040A03500053006F004300DD
:40238000160342006F006F0074006C006F00610064006500720000090229000101028032090400000203000002092111010001222400070501034000010705820340000155
:4023C0001201000200000008B4041DB70130010280010000F8B500BFF8BC08BC9E4670475100000021010000F8B500BFF8BC08BC9E4670472D000000082400000881FF1F0E
:402400002000000070010000000000000C210000102100000000E02EC05D00001800000000366E0100000000000000000000000000000000000000000000000000000000C5
:40244000000000000000000000000000000000000000000000000000000000000000000000000000000000000000000000000000000000000000000000000000000000005C
:40248000000000000000000000000000000000000000000000000000000000000000000000000000000000000000000000000000000000000000000000000000000000001C
:4024C00000000000000000000000000000000000000000000000000000000000000000000000000000000000000000000000000000000000000000000000000000000000DC
:40250000000000000000000000000000000000000000000000000000000000000000000000000000000000000000000000000000000000000000000000000000000000009B
:020000040003F7
:40FFC0000000000000000000000000000000000000000000010000000000000000000000000000000000000000000000000000000000000000000000000000000000000000
:0200000490006A
:040000000000400DAF
:0200000490105A
:04000000BC90ACAF55
:0200000490303A
:02000000EE010F
:0200000490402A
:4000000000000000000000000000000000000000000000000000000000000000000000000000000000000000000000000000000000000000000000000000000000000000C0
:400040000000000000000000000000000000000000000000000000000000000000000000000000000000000000000000000000000000000000000000000000000000000080
:400080000000000000000000000000000000000000000000000000000000000000000000000000000000000000000000000000000000000000000000000000000000000040
:4000C0000000000000000000000000000000000000000000000000000000000000000000000000000000000000000000000000000000000000000000000000000000000000
:0200000490501A
:0C00000000012E12006900012E1EEE6AA5
:00000001FF